:1000000014C02EC02DC02CC0BAC12AC029C028C01F
:1000100027C026C025C024C023C022C021C020C0C4
:100020001FC01EC01DC01CC01BC011241FBECFE5B9
:10003000D1E0DEBFCDBF10E0A0E6B0E0E6E9F5E03C
:1000400002C005900D92A236B107D9F710E0A2E6E2
:10005000B0E001C01D92AE39B107E1F772D299C28A
:10006000CFCF28E087FF02C0C59A01C0C598C79AC4
:10007000990FB6999160C798880F215099F7892FE9
:100080000895CF93C82F9398892FEBDF8C2FE9DF4A
:10009000939ACF9108951F93CF93DF93182F93983E
:1000A000892FDFDFD82F80E0C82F812FDADF939AE6
:1000B000C82BCE01DF91CF911F9108959398C598D9
:1000C00098E0C79A880FB6998160C7989150C9F790
:1000D000939A0895CF93DF931F92CDB7DEB793988D
:1000E0006983BFDF6981862FBCDF939A0F90DF9110
:1000F000CF910895939880EBB4DF80E0B2DF939ABC
:100100000895BD9ABF9ABE980895CF93D7DF87FF11
:1001100078C0809163008130D1F020F0823009F006
:1001200067C04EC0C1E0C0936600E4DF8093620008
:10013000982F9D5F90936500E0916700F0916800B3
:100140009081911155C0C093630081835AC09091F2
:100150006600809165009817D8F4CCDF909162001A
:10016000982790936200209166002D3038F4E0913A
:100170006700F0916800E20FF11D818380916600B5
:10018000823011F49F3FA1F58F5F8093660039C0E4
:10019000E0916700F091680082E0808380916B00BD
:1001A00090E001968170992780936B006EE070E07B
:1001B000D5D183599F4F909368008093670018C0F2
:1001C0008091660090916500891750F4E82FF0E067
:1001D000E757FF4F60818F5F8093660088EB0FC009
:1001E0001092640081E892E84CDF6AEA88EB72DFE3
:1001F0001092630061E88AEC6DDF63E88AECCF91CE
:1002000069CFCF9108958091630081112DC080E066
:1002100090E041DF90FF04C088EC80936000089577
:100220008091600081508093600081111DC081E049
:1002300080936000809164008130B1F481E092E8A5
:1002400020DF80918B008A5F8093650010926600AA
:1002500082E0809363008AEA98EB13DF8AEA98EBE6
:1002600010DF81E292E80DCF089590916400911122
:100270000DC060938B0080938C00862780958093BF
:100280008D0081E08093640080E8089583E0089504
:10029000CF93DF93C82FD62FBA018B3078F480919B
:1002A000640081110DC02EE830E04C2F50E0C901F0
:1002B00067D16C2F8D2FDF91CF91D7CF82E001C016
:1002C00083E0DF91CF910895E9E6F0E0A081B1816C
:1002D0001C92ACE6B0E08C9190E001968170992779
:1002E0008C936EE070E03AD183599F4F9183808365
:1002F0000895939A8B9A05DF87EE90E8C2DE81E03D
:1003000092E8BFDE80E496EABCDE83EA96ECB9DED2
:100310008CE294E9B6DE8BEA92ECB3DE81E89AECEB
:10032000B0DE87EF94ECADDE80E798E9AADE80E0EE
:1003300098ECA7DE80E090EEA4DE8DE28093890049
:1003400084ED80938A008DE690E090936A0080931C
:100350006900909368008093670081E892E891DEDD
:1003600085B7886085BF80E090E095DE8AB78068B9
:100370008ABF81E89AEC85DE83E89AEC82CE1F92F0
:100380000F920FB60F9211242F933F938F939F9349
:10039000AF93BF938091980095982FE130E0882328
:1003A000E9F080919A0090919B00A0919C00B091FF
:1003B0009D00022E04C0B695A795979587950A943F
:1003C000D2F780FF02C0C09A01C0C098C49AC498F6
:1003D0002150310930F7959A909821C080919A0068
:1003E00090919B00A0919C00B0919D00809590956C
:1003F000A095B095022E04C0B695A79597958795C0
:100400000A94D2F780FF02C0C09A01C0C098C49A73
:10041000C4982150310910F782B3816282BB909158
:10042000980081E0911180E080939800BF91AF9196
:100430009F918F913F912F910F900FBE0F901F9022
:10044000189581B3816681BB87B3816187BB8A9828
:10045000B998C298969A10929800F8941EBC1FBC46
:100460001DBC1CBC1BBC1ABC19BC18BC89B787714D
:1004700089BF88B7886E88BF80E290E09BBD8ABD47
:100480008FB58C7F8FBD8EB5877E88608EBD8EB513
:10049000887F84608EBD89B7806489BF789410920C
:1004A0009A0010929B0010929C0010929D0008955B
:1004B000809199008F5F8093990080919900893C89
:1004C00018F11092990080919A0090919B00A09150
:1004D0009C00B0919D000197A105B10549F41092CF
:1004E0009A0010929B0010929C0010929D000CC0EC
:1004F00081E090E0A0E0B0E080939A0090939B00B0
:10050000A0939C00B0939D00E0916900F0916A0077
:1005100080818230A9F4D8DE8FEF9FEFDC018093D9
:100520009A0090939B00A0939C00B0939D002FEFA6
:1005300089E698E1215080409040E1F700C000003A
:1005400062CE2FEF89E698E1215080409040E1F79C
:1005500000C00000CEDE75DFABDFFECF55270024E4
:1005600080FF02C0060E571F660F771F61157105C9
:1005700021F096958795009799F7952F802D0895EE
:10058000FB01DC0102C001900D9241505040D8F7B0
:060590000895F894FFCF6E
:02059600100053
:00000001FF
