:1000000020C07DC12EC02DC07AC02BC02AC029C0FF
:1000100028C027C026C025C024C023C022C021C0BC
:1000200020C01FC01EC01DC01CC0E680018262A689
:1000300023C62C94ABC281CAF7C4709800C800E0F4
:10004000818211241FBECFE5D1E0DEBFCDBF10E01D
:10005000A0E6B0E001C01D92AA38B107E1F799D23D
:10006000B2C2CECF8091610095982FE130E0882315
:10007000E9F08091620090916300A0916400B091DA
:100080006500022E04C0B695A795979587950A94AA
:10009000D2F780FF02C0C09A01C0C098C49AC49829
:1000A0002150310930F7959A909821C080916200D3
:1000B00090916300A0916400B09165008095909547
:1000C000A095B095022E04C0B695A79597958795F3
:1000D0000A94D2F780FF02C0C09A01C0C098C49AA7
:1000E000C4982150310910F782B3816282BB90918C
:1000F000610081E0911180E08093610008951F927A
:100100000F920FB60F9211242F933F934F935F934B
:100110006F937F938F939F93AF93BF93EF93FF93CF
:10012000A1DFFF91EF91BF91AF919F918F917F914F
:100130006F915F914F913F912F910F900FBE0F9054
:100140001F90189581B3816681BB87B3816187BB9E
:100150008A98B998C298969A10926100F8941EBC39
:100160001FBC1DBC1CBC1BBC1ABC19BC18BC89B76D
:10017000877189BF88B7886E88BF84E190E09BBD96
:100180008ABD8FB58C7F8FBD8EB5877E88608EBD12
:100190008EB5887F84608EBD89B7806489BF78946E
:1001A0001092620010926300109264001092650039
:1001B00008951092620010926300109264001092F1
:1001C0006500C0E0CC24CA94DC2C76019FE7892E20
:1001D000912CA12CB12CCF5FCF3FA1F48091620074
:1001E00090916300A0916400B09165000196A11DFB
:1001F000B11D8093620090936300A0936400B0935C
:100200006500C0E080916B0090E06EE070E0CAD1C4
:1002100082599F4FFC0180818230B9F47AD1C0921B
:100220006200D0926300E0926400F092650083ED7A
:1002300090E30197F1F700C0000080926200909275
:100240006300A0926400B092650022D1C4CF28E080
:1002500087FF02C0C59A01C0C598C79A990FB69981
:100260009160C798880F215099F7892F0895CF93EF
:10027000C82F9398892FEBDF8C2FE9DF939ACF91CA
:1002800008951F93CF93DF93182F9398892FDFDF63
:10029000C82FD0E0DC2FCC27812FD9DF939A9E0185
:1002A000282BC901DF91CF911F910895809166009D
:1002B0008111FCCF8BB78F7B8BBF80916C009091AD
:1002C0006D008F7790936D0080936C00D0DF83E09A
:1002D000809366008BB780648BBF08958BB78F7B4C
:1002E0008BBF10926600ECE6F0E08081918180681F
:1002F00091838083BCDF8BB780648BBF0895789433
:100300001F920F920FB60F9211240F931F932F93EA
:100310003F934F935F936F937F938F939F93AF938D
:10032000BF93CF93DF93EF93FF938BB78F7B8BBFFD
:1003300010E402E0D1E01ABF9398C59880E098E0FD
:10034000C79A880FB6998160C7989150C9F7939A58
:1003500087FF86C0C0916600C13061F138F0C230BD
:1003600009F45DC0C33009F46FC071C0D093690057
:1003700080E090EB86DF482F8093600083E0840F5D
:100380008093680020916A0030E0C9016EE070E05F
:1003900009D1FC01E259FF4F8081811158C0D093EF
:1003A0006600C9016EE070E0FDD0FC01E259FF4F2C
:1003B0004183C1CF80E090EB64DF482F209169003A
:1003C000809168002817E0F4309160003427309362
:1003D00060002D3020F02F5F20936900ACCF80911A
:1003E0006A0090E06EE070E0DDD0FC01E159FF4F63
:1003F000E20FF11D4083223071F73F3F41F5EBCF13
:1004000020916A00822F90E06EE070E0CBD082599C
:100410009F4FFC010083C227C0936A0018C09091CF
:10042000690080916800981708F485CF10926700E2
:1004300080916C0090916D008F7D8168926890939F
:100440006D0080936C0013DF8AEA98EB10DF109246
:10045000660081E89AEC0BDF83E89AEC08DF6BCF4B
:100460008BB780648BBFFF91EF91DF91CF91BF91EC
:10047000AF919F918F917F916F915F914F913F913C
:100480002F911F910F910F900FBE0F901F901895F5
:1004900080916600811129C080916700813029F523
:1004A0008BB78F7B8BBF80916C0090916D008F77A5
:1004B00090936D0080936C00DADE1092690082E008
:1004C000809366008AEA98EBD2DE8AEA98EBCFDE68
:1004D00080916C0090916D00806290936D0080938C
:1004E0006C00C5DE8BB780648BBF08958091670078
:1004F000811103C081E0809367000895962F8111D8
:1005000007C080916700811103C060E0892FEECFA2
:100510000895EBE6F0E02081822F90E06EE070E03D
:1005200041D082599F4FDC011C9281E08227808359
:100530000895CF93DF93939A8B9ABD9ABF9ABE98F2
:1005400010926A0010926B0081E892E890936D001F
:1005500080936C00CAE2D0E0FE018591949187DE21
:10056000229680E0C234D807B9F785B7826085BF8C
:1005700080E090E086DE80E48ABF81E89AEC77DE56
:1005800083E89AEC74DE8BB780648BBFDF91CF91E8
:10059000089583ED90E30197F1F700C00000C9DFF3
:1005A000D1DD07DE0024552704C0080E591F880F2F
:1005B000991F009729F076956795B8F37105B9F7FB
:0A05C000802D952F0895F894FFCFC9
:00000001FF
