:1000000012C02AC07EC028C0EDC126C025C024C0B1
:1000100023C022C021C020C01FC01EC01DC01CC0E4
:100020001BC01AC019C011241FBECFEDCDBF10E0F8
:10003000A0E6B0E0E8EBF5E002C005900D92A23634
:10004000B107D9F710E0A2E6B0E001C01D92A638D2
:10005000B107E1F788D2AEC2D3CF28E087FF02C054
:10006000C59A01C0C598C79A990FB6999160C7986B
:10007000880F215099F7892F0895CF93C82F929810
:10008000892FEBDF8C2FE9DF929ACF9108951F9390
:10009000CF93DF93182F9298892FDFDFD82F80E03E
:1000A000C82F812FDADF929AC82BCE01DF91CF9132
:1000B0001F9108959298C59898E0C79A880FB699AD
:1000C0008160C7989150C9F7929A0895CF93DF93B2
:1000D0001F92CDB7DD2792986983BFDF6981862F94
:1000E000BCDF929A0F90DF91CF910895929880EBA8
:1000F000B4DF80E0B2DF929A0895BD9ABF9ABE98AD
:10010000089578941F920F920FB60F9211242F9397
:100110003F934F935F936F937F938F939F93AF938F
:10012000BF93CF93EF93FF938BB78F778BBFC2DFD4
:1001300087FF77C0809163008130D1F020F082305A
:1001400009F067C04EC0C1E0C0936600CFDF809366
:100150006200982F9D5F90936500E0916700F09199
:1001600068009081911155C0C0936300818359C08C
:1001700090916600809165009817D8F4B7DF909150
:10018000620098279093620020916600253038F431
:10019000E0916700F0916800E20FF11D818380918A
:1001A0006600823011F49F3FA1F58F5F8093660057
:1001B00038C0E0916700F091680082E08083809110
:1001C0006B0090E001968170992780936B0066E048
:1001D00070E0D3D183599F4F90936800809367005C
:1001E00018C08091660090916500891750F4E82F3F
:1001F000F0E0E758FF4F60818F5F8093660088EBE7
:100200000FC01092640081E892E837DF6AEA88EB59
:100210005DDF1092630061E88AEC58DF63E88AECE6
:1002200055DF8BB780688BBFFF91EF91CF91BF9166
:10023000AF919F918F917F916F915F914F913F917E
:100240002F910F900FBE0F901F9018958091630013
:10025000811139C08BB78F778BBF80E090E017DFBB
:100260002BB720682BBF90FF04C088EC8093600000
:10027000089580916000815080936000811123C0B7
:1002800081E080936000809164008130E1F48BB75D
:100290008F778BBF81E092E8F0DE80917B008A5FF0
:1002A000809365001092660082E0809363008AEA82
:1002B00098EBE3DE8AEA98EBE0DE81E292E8DDDEAD
:1002C0008BB780688BBF08959091640091110DC029
:1002D00060937B0080937C008627809580937D00CF
:1002E00081E08093640080E8089583E00895CF93CF
:1002F000DF93C82FD62FBA01833078F48091640041
:1003000081110DC02EE730E04C2F50E0C90147D1DC
:100310006C2F8D2FDF91CF91D7CF82E001C083E08A
:10032000DF91CF910895E9E6F0E0A081B1811C92C0
:10033000ACE6B0E08C9190E00196817099278C93A7
:1003400066E070E01AD183599F4F918380830895AE
:10035000929A8A9AD2DE87EE90E88FDE81E092E868
:100360008CDE83E696EA89DE83E296EC86DE8CE21A
:1003700094E983DE8BEA92EC80DE81E89AEC7DDE04
:1003800087EF94EC7ADE80E798E977DE80E098ECFE
:1003900074DE80E090EE71DE8DE28093790084ED72
:1003A00080937A008DE690E090936A0080936900D4
:1003B000909368008093670081E892E85EDE85B7DD
:1003C000886085BF80E090E062DE8AB780688ABF7F
:1003D00081E89AEC52DE83E89AEC4FDE8BB78068B6
:1003E0008BBF08951F920F920FB60F9211242F9377
:1003F0003F938F939F93AF93BF9380918000959885
:100400002FE130E08823E9F0809182009091830011
:10041000A0918400B0918500022E04C0B695A795E6
:10042000979587950A94D2F780FF02C0C09A01C0C1
:10043000C098C49AC4982150310930F7959A909881
:1004400021C08091820090918300A0918400B0919E
:10045000850080959095A095B095022E04C0B69524
:10046000A795979587950A94D2F780FF02C0C09A06
:1004700001C0C098C49AC4982150310910F782B3C2
:10048000816282BB9091800081E0911180E0809335
:100490008000BF91AF919F918F913F912F910F90CD
:1004A0000FBE0F901F90189581B3856681BB87B3EF
:1004B000816187BBC298969A10928000F8941EBC06
:1004C0001FBC1DBC1CBC1BBC1ABC19BC18BC89B70A
:1004D000877189BF88B7886E88BF80E290E09BBD36
:1004E0008ABD8FB58C7F8FBD8EB5877E88608EBDAF
:1004F0008EB5887F84608EBD89B7806489BF78940B
:100500001092820010928300109284001092850055
:100510000895809181008F5F809381008091810098
:10052000893C68F0109281008FEF9FEFDC0180938F
:10053000820090938300A0938400B0938500E091A3
:100540006900F0916A008081823061F4ECDE8FEF07
:100550009FEFDC018093820090938300A09384003E
:10056000B093850073CE8FE79CE00197F1F700C050
:100570000000EEDE99DFCDDFFECF5527002480FF9F
:1005800002C0060E571F660F771F6115710521F017
:1005900096958795009799F7952F802D0895E62FCA
:1005A000F72FA82FB92F02C001900D924150504053
:0805B000D8F70895F894FFCF7D
:0205B800100031
:00000001FF
