:100000000C9434000C9451000C9495000C94510005
:100010000C9451000C9451000C9451000C9451001C
:100020000C9451000C9451000C9451000C9451000C
:100030000C9451000C9451000C9451000C945100FC
:100040000C9451000C9451000C9451000C945100EC
:100050000C9451000C9451000C9451000C945100DC
:100060000C9451000C94510011241FBECFEFD8E026
:10007000DEBFCDBF11E0A0E0B1E0ECE7F4E002C0EC
:1000800005900D92A230B107D9F711E0A2E0B1E0DE
:1000900001C01D92A833B107E1F70E9425020C941C
:1000A0003C020C9400002A989EBD0DB407FEFDCFC3
:1000B0008EBD0DB407FEFDCF2A9A08952A989EBDE5
:1000C0000DB407FEFDCF9EB5392F20E08EBD0DB4D7
:1000D00007FEFDCF8EB52A9A282BC90108952A98CC
:1000E0001EBC0DB407FEFDCF2A9A8EB508952A983E
:1000F0008EBD0DB407FEFDCF6EBD0DB407FEFDCF66
:100100002A9A08952A9880EB8EBD0DB407FEFDCF84
:100110001EBC0DB407FEFDCF2A9A8EB50895239A12
:10012000259A249881E58CBD089578941F920F92AA
:100130000FB60F9211242F933F934F935F936F93BA
:100140007F938F939F93AF93BF93CF93EF93FF933F
:10015000E9980E946F0087FF80C080910301813081
:10016000D9F020F0823009F06EC053C0C1E0C093D6
:1001700006010E94820080930201982F9D5F909358
:100180000501E0910701F0910801908191115BC098
:10019000C0930301818361C09091060180910501A4
:1001A0009817E0F40E9482009091020198279093A2
:1001B0000201209106012D3038F4E0910701F09101
:1001C0000801E20FF11D818380910601823011F454
:1001D0009F3FC9F58F5F809306013FC0E091070103
:1001E000F091080182E0808380910B0190E00196FC
:1001F0008170992780930B014EE0489F9001499FA1
:10020000300D1124235F3E4F3093080120930701E6
:100210001AC08091060190910501891750F4E82FCA
:10022000F0E0E75DFE4F60818F5F8093060188EB11
:1002300012C01092040181E892E80E9453006AEA19
:1002400088EB0E9477001092030161E88AEC0E941B
:10025000770063E88AEC0E947700E99AFF91EF91BA
:10026000CF91BF91AF919F918F917F916F915F914E
:100270004F913F912F910F900FBE0F901F901895A7
:1002800080910301811136C0E99880E090E00E94DE
:100290005E00E99A90FF04C088EC80930001089505
:1002A00080910001815080930001811123C081E081
:1002B00080930001809104018130E1F4E99881E0AC
:1002C00092E80E94530080912B018A5F8093050180
:1002D0001092060182E0809303018AEA98EB0E9463
:1002E00053008AEA98EB0E94530081E292E80E9450
:1002F0005300E99A08959091040191110DC0609303
:100300002B0180932C018627809580932D0181E01D
:100310008093040180E8089583E00895CF93DF93EC
:10032000C82FD62FBA018B3088F480910401811137
:100330000FC02EE231E04C2F50E0C9010E94330281
:100340006C2F8D2FDF91CF910C947B0182E001C047
:1003500083E0DF91CF910895E9E0F1E0A081B181E0
:100360001C92ACE0B1E08C9190E0019681709927ED
:100370008C934EE0489F9001499F300D1124235FDC
:100380003E4F3183208308952A9A229A0E948F003B
:1003900087EE90E80E94530081E092E80E945300AB
:1003A00080E496EA0E94530083EA96EC0E94530090
:1003B0008CE294E90E9453008BEA92EC0E94530075
:1003C00081E89AEC0E94530087EF94EC0E9453005E
:1003D00080E798E90E94530080E098EC0E94530067
:1003E00080E090EE0E9453008DE28093290184ED1D
:1003F00080932A018DE091E090930A018093090196
:10040000909308018093070181E892E80E945300CD
:10041000E9E6F0E080818860808380E090E00E94DF
:100420005E00E19A81E89AEC0E94530083E89AEC1E
:100430000E945300E99A08950E9440018FE891E0DC
:100440000197F1F700C0000008952FEF83ED90E3CE
:10045000215080409040E1F700C000000E94C4019C
:100460000E941C02FDCFFB01DC0102C001900D9235
:0C04700041505040D8F70895F894FFCF99
:02047C0010006E
:00000001FF
