S012000072666D646973706C61792E73726563D7
S113000022C094C13BC03AC05EC038C037C036C0BD
S113001035C034C033C032C031C030C02FC02EC050
S11300202DC02CC02BC02AC029C0E680088262A63D
S1130030A3C62594ABC281CAF7C4709800C800E077
S113004088820D0A000011241FBECFE5D1E0DEBF77
S1130050CDBF10E0A0E6B0E0E8E6FBE002C005900A
S11300600D92AE37B107D9F710E0AEE7B0E001C0AA
S11300701D92AA3BB107E1F74AD374C5C1CF2091C1
S1130080830090E040917E0050917F006091800059
S113009070918100211104C0409550956095709530
S11300A02FE130E0281B390B04C0769567955795EE
S11300B047952A95D2F740FF02C0C09A01C0C09864
S11300C0C49AC49808951F920F920FB60F921124E8
S11300D02F933F934F935F936F937F938F939F934C
S11300E0AF93BF93EF93FF9380918200811101C07E
S11300F0959880918200C3DF809182008F5F809306
S1130100820080918200803289F410928200959A54
S113011080918300882311F0909801C0909A909167
S1130120830081E0911180E080938300FF91EF913F
S1130130BF91AF919F918F917F916F915F914F91FB
S11301403F912F910F900FBE0F901F90189581B380
S1130150816681BB87B3816187BB8A98B998C2984D
S1130160969A10928300F8941EBC1FBC1DBC1CBC44
S11301701BBC1ABC19BC18BC89B7877189BF88B766
S1130180886E88BF80E490E09BBD8ABD8FB58C7F6C
S11301908FBD8EB5877E88608EBD8EB582608EBD24
S11301A08EB58E7F8EBD8EB58B7F8EBD89B78064F4
S11301B089BF789410927E0010927F001092800084
S11301C010928100089580EF90E0AFE0B0E080935A
S11301D07E0090937F00A0938000B09381002091D3
S11301E08A0030E0C90163E170E09ED283579F4FDB
S11301F0FC0180818230E1F5C90163E170E094D2B1
S1130200EC01CF56DF4F10E080918A0090E063E16B
S113021070E08AD283579F4FFC018181181740F404
S1130220FE01E10FF11D808190E00ED21F5FECCF43
S113023048E150E060E070E0CE0187D260937E0038
S113024070937F00809380009093810081E690E01A
S1130250FFD143D08EE1FFE926E831E0F1502040A0
S11302603040E1F700C000008150A9F74ED09AD188
S113027030D180E18A95F1F700C0B1CF28E087FF43
S113028002C0C59A01C0C598C79A990FB6999160E2
S1130290C798880F215099F7892F0895CF93C82FB5
S11302A09398892FEBDF8C2FE9DF939ACF910895F0
S11302B01F93CF93DF93182F9398892FDFDFC82FD5
S11302C0D0E0DC2FCC27812FD9DF939A9E01282BF5
S11302D0C901DF91CF911F9108958091850081110B
S11302E0FCCF8BB78F7B8BBF80918B0090918C0060
S11302F08F7790938C0080938B00D0DF83E0809382
S113030085008BB780648BBF08958BB78F7B8BBFC1
S113031010928500EBE8F0E0808191818068918300
S11303208083BCDF8BB780648BBF089578941F9261
S11303300F920FB60F9211240F931F932F933F9395
S11303404F935F936F937F938F939F93AF93BF93D9
S1130350CF93DF93EF93FF938BB78F7B8BBFD0E467
S113036012E0C1E0DABF9398C59880E098E0C79A9C
S1130370880FB6998160C7989150C9F7939A87FFFF
S113038090C000918500013061F138F0023009F429
S11303905DC0033009F479C07BC0C093880080E05D
S11303A090EB86DF482F8093840083E0840F809352
S11303B087002091890030E0C90163E170E0B4D185
S11303C0FC01E357FF4F8081811162C0C093850017
S11303D0C90163E170E0A8D1FC01E357FF4F4183F9
S11303E0C1CF80E090EB64DF482F2091880080919A
S11303F087002817E0F43091840034273093840078
S1130400223120F02F5F20938800ACCF80918900A7
S113041090E063E170E088D1FC01E257FF4FE20F06
S1130420F11D4083223071F73F3F91F5EBCF2091CE
S11304308900822F90E063E170E076D183579F4F6B
S1130440FC01108302270093890022C0E0918800F8
S113045080918700E81758F481E08E0F809388001C
S1130460F0E0ED54FF4F808190E0986B18C010923B
S1130470860080918B0090918C008F7D88689268B3
S113048090938C0080938B0009DF8AEA98EB06DF57
S11304901092850081E89AEC01DF83E89AECFEDE95
S11304A061CF8BB780648BBFFF91EF91DF91CF91C8
S11304B0BF91AF919F918F917F916F915F914F9178
S11304C03F912F911F910F910F900FBE0F901F908E
S11304D0189580918500811143C08BB78F7B8BBFAA
S11304E080E090E0E5DE2BB720642BBF90FF02C0D4
S11304F088EC05C080916000882321F081508093AE
S11305006000089580918600813051F58BB78F7B10
S11305108BBF80918B0090918C008F7790938C008F
S113052080938B00BBDE8091B5008A5F8093870047
S11305301092880082E0809385008AEA98EBAEDE10
S11305408AEA98EBABDE80918B0090918C008062FC
S113055090938C0080938B00A1DE8BB780648BBF5B
S113056008959091860091110DC06093B500809319
S1130570B600862780958093B70081E0809386003B
S113058080E8089583E00895962F811107C0809133
S11305908600811105C060E0892FE3CF82E00895D1
S11305A083E00895EAE8F0E02081822F90E063E19F
S11305B070E0BAD083579F4FDC011C9281E0822700
S11305C080830895CF93DF93939A8B9ABD9ABF9AB1
S11305D0BE988DE28093B30084ED8093B4001092B2
S11305E0890010928A0088E892E890938C008093A6
S11305F08B00CAE2D0E0FE01859194914FDE2296F1
S113060080E0C234D807B9F788E090EC47DE85B7BC
S1130610826085BF80E090E04BDE80E48ABF81E8A1
S11306209AEC3CDE83E89AEC39DE8BB780648BBFAE
S1130630DF91CF91089588E08AB912B889E189B928
S11306401BB886E083B908955D9BFECF8CB90895ED
S1130650CF93DF93EC018991882311F0F5DFFBCF71
S1130660DF91CF910895CF93DF93EC01FE01849144
S1130670882319F0E9DF2196F9CFDF91CF9108950E
S11306805F9BFECF8CB108955F9B05C02CB1FC012C
S1130690208381E0089580E00895DF92EF92FF9235
S11306A00F931F93CF93DF9300D01F92CDB7DEB784
S11306B07B018C01E80EF91ED12C0E151F05E1F00B
S11306C0F80181918F0140E150E0BE016F5F7F4FDF
S11306D090E05ED18A81811102C080E2B5DFCE0153
S11306E00196B6DF80E2B0DFD394F0E1DF12E5CF0C
S11306F082E490E0B8DFE0CF0F900F900F90DF918D
S1130700CF911F910F91FF90EF90DF90089593DFA9
S113071083ED90E30197F1F700C0000053DF17DD8C
S113072085E690E095DF4FDD0024552704C0080ED0
S1130730591F880F991F009729F076956795B8F38C
S11307407105B9F7802D952F0895A6E0B0E0EAEA87
S1130750F3E0A3C18B015E834D836115710519F02C
S1130760FB01808391834D805E804114510439F0F4
S11307709201225031092332310508F0F3C07C0183
S113078067012FEFC21AD20A5601F7018080882D23
S113079090E0F6D0892B11F07601F2CFFDE28F12B2
S11307A009C0570122E0A20EB11CF70181809924EF
S11307B093940AC0FBE28F1206C0570122E0A20EF6
S11307C0B11CF7018180912C8D819E818F7E892BB4
S11307D099F4F0E38F123FC0F50180818F7D883555
S11307E0E9F48180F2E0AF0EB11C292D2260922E33
S11307F080E190E09E838D83ED81FE81EA30F105F6
S113080091F1E031F10519F03897B9F40BC0CC241B
S1130810CA94DC2CEC2CBFE0FB2E2BC06D807E80B8
S1130820672851F728E030E03E832D83CC24CA9416
S1130830DC2CEC2CAFE1FA2E1CC06FEF7FEFCB0168
S11308404D805E809201442737FD4095542FE6D0B9
S113085069017A010EC04D805E80452869F62AE060
S113086030E03E832D83F9E9CF2EDC2CEC2CF9E12A
S1130870FF2E20E060E070E0CB014D805E806624B6
S113088057FC6094762C49825A826B827C821501D3
S113089050ED752E780CE9E05E2E571470F43FEBA2
S11308A0380D3A3118F449EC742E06C03FE9380D7E
S11308B03A3188F539EA732E780C472D50E04D8093
S11308C05E80441555053CF52F3FF9F0C616D70652
S11308D0E806F906B8F029813A814B815C81C2D0DF
S11308E0CA01A901BC01472C512C612C712CCB01EC
S11308F0BA01640D751D861D971D64157505860561
S1130900970510F42FEF01C021E03FEFA31AB30ABB
S1130910F1018080BCCF0115110571F0222321F073
S1130920F1E0AF1AB10805C091FE06C0F2E0AF1ABB
S1130930B108F801B182A08290FE07C0909580951D
S1130940709561957F4F8F4F9F4F27FF10C082E2B4
S113095090E09093B9008093B8003FEF2FEF4FEFF2
S11309609FEF08C030E020E040E090E003C0362F65
S1130970272F482F632F722F842F2696E2E1A9C0D8
S1130980911125C0803219F089508550D0F708950F
S1130990FB019F01E8944230BCF04532ACF44A308C
S11309A029F497FB1EF4909581959F4F642F772728
S11309B021D0805D8A330CF0895D8193CB0100974F
S11309C0A9F716F45DE251931082C90103C0992777
S11309D088270895DC01FC01672F71917723E1F7E3
S11309E0329704C07C916D9370836291AE17BF07F8
S11309F0C8F30895AA1BBB1B51E107C0AA1FBB1F64
S1130A00A617B70710F0A61BB70B881F991F5A9596
S1130A10A9F780959095BC01CD010895A1E21A2E05
S1130A20AA1BBB1BFD010DC0AA1FBB1FEE1FFF1F8E
S1130A30A217B307E407F50720F0A21BB30BE40BDE
S1130A40F50B661F771F881F991F1A9469F7609525
S1130A507095809590959B01AC01BD01CF010895DF
S1130A6068940010E894A0E0B0E0E8E3F5E01DC06D
S1130A70EFEFE7F959016A015E23550FEE08FE2CEA
S1130A8087019B01AC019E23990F660B762FCB0146
S1130A903BD0CDB7DEB7EAE024C02F923F924F920D
S1130AA05F926F927F928F929F92AF92BF92CF92FA
S1130AB0DF92EF92FF920F931F93CF93DF93CDB703
S1130AC0DEB7CA1BDB0B0FB6F894DEBF0FBECDBF7B
S1130AD009942A88398848885F846E847D848C844C
S1130AE09B84AA84B984C884DF80EE80FD800C8155
S1130AF01B81AA81B981CE0FD11D0FB6F894DEBF38
S1130B000FBECDBFED010895DF93CF939F92A0E474
S1130B109A2E0024D001E001F00116950795F79470
S1130B20E794D794C794B794A79448F41068A20F95
S1130B30B31FC41FD51FE61FF71F081E191E220F5F
S1130B40331F441F551F661F771F881F991F9A94D0
S1130B5021F79D01AE01BF01C00111249F90CF91E7
S10B0B60DF910895F894FFCF22
S1130B6810220D0A000D0A52464D31322050696E8A
S1110B7867706F6E6720746573740D0A000059
S9030000FC
